:020000040800F2
:1000000000000220A1830008D1010008D5010008EA
:10001000D9010008DD010008E1010008000000002E
:10002000000000000000000000000000A12A0008FD
:10003000E501000800000000312B0008812B0008BA
:10004000F1830008F1830008F1830008F1830008C0
:10005000F1830008F1830008F1010008E9010008BC
:10006000F1830008F1830008F1830008F1830008A0
:10007000F1830008F1830008F1830008F183000890
:10008000F1830008F1830008F1830008F183000880
:10009000F1830008F1830008F1830008F183000870
:1000A000F1830008F1830008F1830008F183000860
:1000B000F9010008F1830008F1830008F1830008CA
:1000C000F1830008F1830008F1830008F183000840
:1000D000F1830008A1050008F1830008F1830008FE
:1000E000F1830008F1830008F1830008F183000820
:1000F000F1830008F1830008F1830008F183000810
:10010000F1830008F1830008F1830008F1830008FF
:10011000F1830008F1830008F1830008F1830008EF
:10012000F1830008F1830008F1830008F1830008DF
:10013000F1830008F1830008F1830008F1830008CF
:10014000F1830008F1830008F1830008FD01000835
:10015000F1830008F1830008F1830008F1830008AF
:10016000F1830008F1830008F1830008F18300089F
:10017000F1830008F1830008F1830008F18300088F
:08018000F1830008F18300087F
:10018800F8B540F2940400F059F9C2F200040020D6
:1001980000F0AEF925460027012606E02E6000F0A3
:1001A8007FF94FF4FA7001F0D5FF20680028F5D0E8
:1001B80000202F6000F09CF9F3E700BF704700BFF4
:1001C800704700BF704700BF704700BFFEE700BF21
:1001D800FEE700BFFEE700BFFEE700BF704700BFB5
:1001E800022003F03BB900BF012003F037B900BF7C
:1001F80000F0E8BB45F25420C2F2000007F0F0BE60
:100208004FF46D42CEF200024FF46053D2F88800EA
:10021800C4F2020340F47001C2F888101868002282
:1002280040F0010119609A60186843F2100120F04B
:10023800847C2CF48030C2F2004118605960186840
:1002480082B020F480211960DA6000920192186867
:1002580040F480321A601A4603E00098B0F5A06FA7
:1002680009D0116801F4003301930098411C0091F2
:10027800019B002BF1D04FF4605CC4F2020CDCF857
:10028800003013F4003208BF019201D0012101911E
:100298000198012808D04FF46D43CEF200034FF0C7
:1002A8000060986002B070474FF46053C4F20203D4
:1002B8004FF4E04C186CC4F2000C40F08051196403
:1002C800DCF8002042F48040CCF80000996899607E
:1002D8009A6842F400409860996845F2084041F4F1
:1002E800A052C0F240709A605860196841F080725C
:1002F8001A6019460A684FF460539201C4F2020367
:10030800F8D54FF4705CC4F2020C40F20560CCF8EA
:100318000000996821F003029A60986840F0020191
:100328009960996801F00C02082AFAD1B3E700BF76
:100338004FF46053C4F202039A6802F00C02042AD4
:1003480004BF4FF49051C0F27A0106D0082A1CBFAE
:100358004FF41051C0F2F4010FD04FF46050C4F2C2
:10036800020040F200038268C2F20003C2F3031CD9
:1003780013F80C00C1401961704758685A685968E9
:1003880010F4800F4FF4605C14BF4FF490534FF497
:100398001053C4F2020C14BFC0F27A03C0F2F40383
:1003A80002F03F02C1F38810B3FBF2F1DCF804302D
:1003B800C3F3014201FB00F1501C4300B1FBF3F110
:1003C800CBE700BF0020704700207047012070472E
:1003D800002070474FF0FF30704700BF0020704783
:1003E80040F2A003C2F20003186838B141186A4607
:1003F800914294BF19604FF0FF30704745F2F0709A
:10040800C2F200001860F1E770B5161E0C4613DD45
:1004180000254FF48840C4F20000615D04F066FBDB
:100428004FF48840C4F20000402104F02DFC00285D
:10043800F6D00135B542ECD1304670BD10B5082074
:1004480082B0012102F06CFE4FF440644FF4704218
:10045800C4F20204009201220023694620468DF866
:10046800042003228DF806308DF805208DF807301A
:1004780003F08EF820464FF4005103F031FA20467D
:100488004FF4805103F02CFA20464FF4804103F0DA
:1004980027FA20464FF4004103F022FA02B010BDBB
:1004A800032823D8DFE800F01A120A024FF440604C
:1004B800C4F202004FF4004103F010BA4FF4406058
:1004C800C4F202004FF4804103F008BA4FF44060D0
:1004D800C4F202004FF4805103F000BA4FF44060B8
:1004E800C4F202004FF4005103F0F8B9704700BF9E
:1004F800032823D8DFE800F01A120A024FF44060FC
:10050800C4F202004FF4004103F0EAB94FF440602E
:10051800C4F202004FF4804103F0E2B94FF44060A6
:10052800C4F202004FF4805103F0DAB94FF440608E
:10053800C4F202004FF4005103F0D2B9704700BF73
:1005480010B540F2A40482B0C2F200044FF4805007
:10055800C4F20100802104F097FB58B90A2001F089
:10056800F9FD4FF48050C4F20100802104F08CFBA7
:100578000028F3D00023206801A94FF0FF3200F0D3
:1005880053FD0128E2D14FF48050C4F20100BDF8B8
:10059800041004F0ABFAD9E710B54FF4805082B0DC
:1005A8000024C4F2010040F22551009404F076FBC7
:1005B80088B14FF48050C4F2010004F09BFA40F275
:1005C800A403C2F2000302A96A4641F8040D586860
:1005D800234600F0EBFC02B010BD00BF70B504214B
:1005E8008CB00022102000F041FB40F2A405C2F2BA
:1005F8000005042128600022102000F037FB0024A9
:10060800686048F2184140F249502346AA22C0F6D1
:1006180000010326C0F600004FF48065C4F202050D
:10062800009601940294039400F048FF02200121EF
:1006380002F076FD022309A92846C0228DF8283049
:100648008DF82930099202F0A3FF284606210722D7
:1006580003F056F907210A4628464FF4805503F05F
:100668004FF9C4F201051020012102F091FD4FF469
:10067800E1360C2205A92846ADF81E200596ADF8EE
:100688001840ADF81A40ADF81C40ADF8204004F011
:100698004DF92846012104F0F5F901260BA8252378
:1006A8008DF82C308DF82E408DF82F6002F056FB17
:1006B800284640F22551324604F0C8FA0CB070BD05
:1006C80000B540F2A403C2F2000383B0642201A97A
:1006D8005868002300F0A8FC01280CBF01984FF0CF
:1006E800FF3003B000BD00BF00B540F2A40383B0E3
:1006F80002A9C2F20003002241F8040D186813464B
:1007080000F0D8FB01280CBF01984FF0FF3003B070
:1007180000BD00BF70B540F2A40682B0441E00259B
:10072800C2F2000614F8013F30680193002201A9C3
:10073800134600F0BFFB012809D101994B1C08D0D2
:10074800607801350028EDD1284602B070BD01253A
:10075800FAE70546F8E700BF704700BF704700BFDB
:10076800704700BF40F29803C2F2000300221A60EB
:10077800704700BF704700BF704700BF704700BF99
:10078800704700BF704700BF704700BF704700BF89
:10079800704700BF704700BF01207047704700BF17
:1007A8000020704700207047704700BF4FF4FA7070
:1007B80000F004B930B540F2AC04C2F200040346BC
:1007C80085B00D464FF080400021236003F068FAA1
:1007D800012100224FF0804003F0FEFE022D2FD0B1
:1007E800012D04BF42F6DF630293002205234FF078
:1007F800804001A9ADF80430ADF80C20ADF8062012
:1008080003F080F94FF08040012103F007FF4FF01B
:100818008040012103F01AFA01214FF080400A4676
:1008280003F0DAFE4FF08040012103F039FA216825
:100838000029FCD14FF0804003F032FA05B030BDFA
:100848000B200290D1E700BF704700BFF0B5012030
:10085800002585B0C4F20205014602F061FC0026BD
:100868004FF4D053032701A92846022401938DF899
:1008780008408DF809708DF80A608DF80B6002F059
:1008880087FE284609210A2203F03AF828460B2158
:100898000A2203F035F828460A220C2103F030F822
:1008A800012401A928464FF4806201928DF80A407C
:1008B8008DF80B408DF8097002F06AFE0A210A468D
:1008C800284603F01DF821464FF4804002F060FCF2
:1008D8008020214602F032FC31464FF0006002F0E1
:1008E8007FFA4FF4A06002F02FFA03A81C238DF8BA
:1008F8000C308DF80D608DF80E408DF80F4002F029
:100908002DFA2046214602F035FC05B0F0BD00BFA7
:1009180010B54FF4C06082B002F016FA012401A8A5
:1009280043228DF804208DF805408DF806408DF897
:10093800074002F013FA1721022301A88DF80410CA
:100948008DF805408DF806308DF8074002F006FA5C
:1009580002B010BD4FF40060C4F2020011B10121D1
:1009680002F0BEBF012102F0B9BF00BF30B54FF49D
:10097800006583B004200121C4F2020502F0D0FB17
:10098800012400230222284669468DF805208DF8A7
:1009980006308DF8073000948DF8044002F0F8FD19
:1009A8002846214602F09AFFC8202146FFF702FF99
:1009B80003B030BD0221FFF7FDBE00BF0121FFF7E4
:1009C800F9BE00BF08B54FF08040012103F01AFEC0
:1009D80000B908BD01214FF0804003F01FFE40F22E
:1009E800AC03C2F20003196819B11868421E1A60F4
:1009F80008BD4FF08040BDE8084003F051B900BF82
:100A08002C8400080000002094000020940000209E
:100A1800F057002038B5044602F062F8A36C002BAA
:100A280019DD606AB8B104F1240507E0A06C431E23
:100A3800A364A26C002A0EDD616A61B1284601F048
:100A48002BFD0028F2D001F0A7FDA06C431EA36483
:100A5800A26C002AF0DC4FF0FF32A26402F058F8D2
:100A680002F03EF8616C002919DD2369BBB104F17D
:100A7800100507E0636C5A1E6264616C00290EDD84
:100A8800206960B1284601F007FD0028F2D001F086
:100A980083FD636C5A1E6264616C0029F0DC4FF0C0
:100AA800FF306064BDE8384002F032B838B515460A
:100AB800026C044632B90568002D2BD0A06B421C8D
:100AC800A26338BD7DB9806807F06AFBA168206C15
:100AD80062680B189342A360F0D32268A06BA260EF
:100AE800421CA26338BDC06807F05AFB226CE36859
:100AF800216850421B188B42E3603EBF6368181898
:100B0800E060022DDAD1A06B0028D7D0A36B591E64
:100B1800A163D3E7406801F097FD6560CEE700BFA9
:100B2800F0B5044685B000231E4603931D4601F028
:100B3800D7FFA26BE06B82422ED3039F002F4ED0CB
:100B4800002E36D001F0E4FF01F030F801F0C8FFC4
:100B5800626C531C08BF6564A36C013308BFA564AD
:100B680001F0D6FF01A803A901F0E4FC00283AD15E
:100B780001F0B6FFA66BE06B86421ED001F0C8FFFD
:100B88002046FFF747FF01F001F9012601F0A8FF11
:100B9800A26BE06B8242D0D200210A462046FFF7C2
:100BA80085FF616A002925D101F0B2FF012005B057
:100BB800F0BD01A801F0B2FCC4E701F0A9FF039958
:100BC80004F1100001F0FEFB2046FFF723FF01F0BF
:100BD800DDF80028D9D101F06FFF0126D6E701F032
:100BE80097FF3846E3E72046FFF714FF01F0CEF8F9
:100BF8000020DCE704F1240001F04EFC0128D3D1E9
:100C080001F05AFFD0E700BF70B504460D4601F069
:100C180067FFE06B2368216CA360461E4FF0FF322C
:100C280000FB013001FB06330021A16360606264B0
:100C3800E360A26475B922691AB901F069FF01205D
:100C480070BD04F1100001F027FC0128F5D101F076
:100C580033FFF2E704F1100002F02AF804F124004F
:100C680002F026F801F054FF012070BD2DE9F04193
:100C780004460D469046002835D0502001F0D4FF98
:100C8800064600282FD004FB05F0013001F0CCFF08
:100C98000746306018B3F463356401F021FFF16B47
:100CA8003368326CB360481E01FB023102FB00322C
:100CB8004FF0FF330020B06371607364F260B36477
:100CC80006F1100001F0F4FF06F1240001F0F0FF36
:100CD80001F01EFF86F84D803046BDE8F0813046B1
:100CE80001F0D2FF3846BDE8F08100BF38B50546AF
:100CF800502001F099FF0446C0B100234FF0FF32A5
:100D0800012183636360626410302360A360E36041
:100D1800E1632364A26484F84D5001F0C9FF04F133
:100D2800240001F0C5FF2046FFF7FAFE204638BD33
:100D380010B5044601F0D4FE236823B9646801F0B5
:100D4800E7FE204610BD002401F0E2FE204610BD5B
:100D580038B54568044601F02FFC854201D00020D3
:100D680038BDE068431EE3600BB1012038BD204662
:100D7800FFF7D6FE012038BDF0B585B045680446BA
:100D88000E4601F019FC854258D0039601F0A8FEE2
:100D9800A36B00273D46002B36D1039E002E6CD056
:100DA800002F5ED001F0B4FE00F000FF01F098FEC5
:100DB800636C013308BF6564A16C4B1C08BFA56454
:100DC80001F0A6FE01A803A901F0B4FB002858D140
:100DD80001F086FEA76B002F3AD101F099FE226838
:100DE800002A42D0039904F1240001F0EBFA2046CE
:100DF800FFF710FE00F0CAFF002825D0012701F0F8
:100E08006FFEA36B002BC8D02368002B4BD0E16882
:100E1800226C606889188142E16024BF1946E3604A
:100E2800002007F0BDF9A16B20684A1EA2630028C4
:100E38003CD02369002B2BD101F06AFEE068421CEC
:100E4800E260012005B0F0BD01F036FE0127D6E7CB
:100E580001F05EFE2046FFF7DDFD012700F096FF5A
:100E6800CDE701A801F05AFB9CE701F039FE606864
:100E780001F0B6FB01F04CFEB4E701F049FE304644
:100E8800E0E72046FFF7C6FD00F080FF0020D9E725
:100E980004F1100001F000FB0128CDD101F00CFE97
:100EA80001F036FECAE7A16B481EA06301F084FB7F
:100EB8006060BEE72DE9F041044684B01F46019208
:100EC8000E4601F00DFEA26BE36B00259A42A84680
:100ED80032D3022F30D00198002851D0002D39D0BC
:100EE80001F016FE00F062FE01F0FAFD626C531C80
:100EF80008BFC4F84480A16C4B1C08BFC4F84880E4
:100F080001F006FE02A801A901F014FB00283CD15B
:100F180001F0E6FDA56BE36B9D421FD001F0F8FDE3
:100F28002046FFF777FD00F031FF012501F0D8FDDD
:100F3800A26BE36B9A42CCD2204631463A46FFF781
:100F4800B5FD606A002827D101F0E2FD012004B058
:100F5800BDE8F08102A801F0E1FAC1E701F0D8FD8F
:100F6800019904F1100001F02DFA2046FFF752FD17
:100F780000F00CFF0028D8D101F09EFD0125D5E72F
:100F8800009001F0C5FD0098E1E72046FFF742FD1B
:100F980000F0FCFE0020DAE704F1240001F07CFAFE
:100FA8000128D1D101F088FDCEE700BF2DE9F0413D
:100FB8000446154698460F4601F08AFDA26BE36B7E
:100FC8009A42064609D3B8F1020F06D000243046EB
:100FD80001F09AFD2046BDE8F08120463946424698
:100FE800FFF764FDA06C431C09D0A36C5A1CA264D3
:100FF8003046012401F088FD2046BDE8F081616A91
:1010080031B93046012401F07FFD2046BDE8F0816A
:1010180004F1240001F040FA0028F2D00124002D48
:10102800D5D02C60D3E700BF2DE9F041044684B049
:101038001F460E46019201F053FDA36B0025A846FA
:10104800002B38D10198002870D0002D62D001F013
:101058005FFD00F0ABFD01F043FD636C013308BF99
:10106800C4F84480A26C531C08BFC4F8488001F03F
:101078004FFD02A801A901F05DFA00285DD101F039
:101088002FFDA56B002D3CD101F042FD2068002802
:1010980044D0019904F1240001F094F92046FFF7A7
:1010A800B9FC00F073FE002827D0012501F018FDD7
:1010B800A36B002BC6D02368E56853B1226C606827
:1010C800A9188142E160304624BFE360194607F061
:1010D80067F8002F38D1A36B21685A1EA263002934
:1010E80042D02069002832D004F1100001F0D4F970
:1010F80001282CD101F0E0FC29E001F0DDFC0125FC
:10110800D4E701F005FD2046FFF784FC012500F037
:101118003DFECBE702A801F001FA98E701F0E0FCF8
:10112800606801F05DFA01F0F3FCB2E7009001F0AD
:10113800EFFC009804B0BDE8F0812046FFF76AFC98
:1011480000F024FE0020F5E7616AE56019B901F0B6
:10115800DFFC0120EEE704F1240001F09DF90028EE
:10116800F5D001F0A9FCF2E701F026FA6060B8E7D3
:10117800F8B504460F46164601F0AAFCA36B0546CF
:101188002BB91C46284601F0BFFC2046F8BD236851
:101198005BB1E168226C606889188142E160384679
:1011A80024BFE360194606F0FBFFA06B421EA26352
:1011B800636C013308D0626C531C636428460124B5
:1011C80001F0A2FC2046F8BD216909B90124D9E73C
:1011D80004F1100001F060F90028F7D00124002E76
:1011E800D0D03460CEE700BFF8B504460F4601F012
:1011F8006FFCA36B05462BB91C46284601F084FCFE
:101208002046F8BD2368E66853B1226C6068B118BF
:101218008142E160384624BFE360194606F0C0FF0A
:10122800E6602846012401F06FFC2046F8BD00BFA7
:1012380010B5044601F054FCA46B01F069FC20468B
:1012480010BD00BF10B5044601F04AFCA36BE46B67
:10125800E41A01F05DFC204610BD00BF806B7047AA
:1012680045F29073C2F2000310B55A6890420446E2
:1012780022D0D968884224D05A69904223D0D969AB
:10128800884222D05A6A904221D0D96A884220D016
:101298005A6B90421FD0D96B88421ED05A6C90422C
:1012A8001DD0D96C88421CD0206801F0EDFC204686
:1012B800BDE8104001F0E8BC0022002043F83200ED
:1012C800F2E70122F9E70222F7E70322F5E7042211
:1012D800F3E70522F1E70622EFE70722EDE7082208
:1012E800EBE70922E9E700BF90F84C00704700BF20
:1012F80080F84C10704700BF90F84D00704700BF51
:10130800806BD0F1010038BF00207047826BC16B41
:10131800531A584240EB0300704700BF45F29073E0
:10132800C2F2000310B41A68A2B19A68C2B11A696D
:10133800C2B19A69C2B11A6AC2B19A6AC2B11A6BC9
:10134800C2B19A6BC2B11A6C1AB19A6CB2B110BC24
:101358007047082203EBC20443F832106060F6E7D6
:101368000122F7E70222F5E70322F3E70422F1E777
:101378000522EFE70622EDE70722EBE70922E9E776
:1013880045F29073C2F200035A6882421BD0D968B2
:1013980081421DD05A6982421CD0D96981421BD032
:1013A8005A6A82421AD0D96A814219D05A6B82424B
:1013B80018D0D96B814217D05A6C824216D0D96C9A
:1013C800814215D070470022002043F83200704750
:1013D8000122F9E70222F7E70322F5E70422F3E7FF
:1013E8000522F1E70622EFE70722EDE70822EBE7FF
:1013F8000922E9E738B504460D4601F071FB636C34
:10140800013313D0A16C4B1C0DD001F081FBA36BF1
:1014180023B904F12400294601F00EF82046BDE85E
:101428003840FFF7F7BA0022A264EEE700206064B4
:10143800E8E700BF4B685B682DE9F00701F1080495
:10144800A3424B6008BF5B684FF00008D3F80C90CC
:101458008446924640465B689C424B6008BF63687E
:10146800DA6808BF4B6002F134058CE82400566C3A
:101478008CF80CA0CCF80860D56ACCF81050D66C63
:10148800CCF81800CCF81460166B3578A52D4FF001
:10149800000506D116F8017F0135A52FADB2F9D0A8
:1014A800AD089145ACF81C5008F101080CF1200C6E
:1014B800D1D14046BDE8F007704700BF2DE9F04F95
:1014C80083B0064650200C4615469946DDF830A0F4
:1014D800DDF83480DDF838B001F0A6FB07460028B7
:1014E80000F0DB80BBF1000F00F02281C0F830B0C3
:1014F800AA005846A52106F0CBFE94F800B03A6B36
:1015080087F834B005F1FF3194F9003002EB81001F
:1015180020F0070B002B59D094F801C087F835C08C
:1015280094F90150002D51D0A07887F8360094F92D
:101538000230002B4AD0E27887F8372094F903105C
:10154800002943D094F804E087F838E094F904506F
:10155800002D3BD0607987F8390094F90530ABB39A
:10156800A27987F83A2094F9061079B394F807C05D
:1015780087F83BC094F9075045B3207A87F83C00B8
:1015880094F9083013B3627A87F83D2094F909106A
:10159800E1B194F80AE087F83EE094F90A50ADB159
:1015A800E07A87F83F0094F90B307BB1227B87F80B
:1015B800402094F90C1049B194F80DC087F841C047
:1015C80094F90D5015B1A47B87F842400021BAF177
:1015D800090F34BF554609253C1D87F8431020469E
:1015E800FD62FD6401F070FB07F1180001F06CFB6F
:1015F800C5F10A033F61BB617F62584631464A46DE
:1016080001F036FA3860B8F1000F01D0C8F8007060
:1016180040F2B005C2F2000501F062FA2A68501CD7
:1016280028606E68002E3BD0D5F83C1100292AD0DE
:1016380005F10806FB6AD5F84021D5F8440140F2C7
:10164800B00CC2F2000C511C03EB830E834288BF1E
:10165800CCF84431C5F84011796406EB8E00214678
:1016680001F036FB01F054FAD5F83C2140F2B00302
:10167800C2F200031AB15868C36A9A4509D8012012
:1016880003B0BDE8F08F6868C66AB24528BF6F60CE
:10169800CEE701F011FA0120F2E74FF0FF30EFE753
:1016A8006F602B68012B05F10806C3D1304601F0A5
:1016B800FFFA05F11C0001F0FBFA05F1300001F01A
:1016C800F7FA05F1440001F0F3FA05F1580001F0CA
:1016D800EFFA05F16C0001F0EBFA05F1800001F07A
:1016E800E7FA05F1940001F0E3FA05F1A80001F02A
:1016F800DFFA05F1D00905F1BC0001F0D9FA05F1CE
:10170800E408484601F0D4FA404601F0D1FA05F160
:10171800F80001F0CDFA05F5867001F0C9FA05F573
:10172800907001F0C5FAC5F83491C5F8388181E7A1
:10173800AA001046019201F077FA019A38638346AD
:1017480000287FF4D6AE384601F09EFA4FF0FF30FD
:1017580096E700BFF8B5064640F2B00401F0C0F9BC
:10176800C2F200042EB3371D384601F0D9FAB36A25
:101778001BB106F1180001F0D3FA40F2B005C2F22D
:10178800000505F58670394601F0A2FAD4F848013B
:10179800D4F84031421C591CC4F84821C4F84011FF
:1017A80001F0B6F9D4F83C0110B169688E4202D054
:1017B800F8BD6668D7E7BDE8F84001F07DB900BF1D
:1017C80010B5044601F08CF924B1E46A01F0A0F9DF
:1017D800204610BD40F2B003C2F200035C68E46A20
:1017E80001F096F9204610BD2DE9F041054609297A
:1017F80034BF88464FF0090801F072F9002D48D02F
:10180800EA6C424541D040F2B003C2F200030AD26A
:10181800596800248D420BD05868C46A44458CBF6F
:101828000024012404E05F68EE1B744244EB0604C4
:10183800EB6AC5F84C8040F2B006C2F200069A4244
:1018480006F1080703EB830E6A6908BFC5F82C8008
:1018580007EB8E0CC8F10A016245A96112D105F1A6
:101868000408404601F05CFAD6F84411EA6A8A4254
:1018780002EB820088BFC6F8442107EB800041468E
:1018880001F026FA0CB101F017F9BDE8F04101F0BA
:101898003FB940F2B003C2F200035D68B0E700BF91
:1018A8004369084A934201D000207047806A283B68
:1018B800984204D0D0F1010038BF002070470020C2
:1018C800704700BFD001002070B5054688B140F2CE
:1018D800B004C2F20004636898420AD001F000F92B
:1018E8006A6904F59070824204D0BDE8704001F046
:1018F8000FB970BDAB6A04F1F8018B42F5D0002B2B
:10190800F3D12E1D304601F00BFAEB6AD4F84401EE
:10191800094903EB8302834201EB8200314688BF09
:10192800C4F8443101F0D4F96068EA6AC36A9A429B
:10193800DBD301F0C1F8D8E7B80000202DE9F04169
:10194800074640F2B00601F0C3F8C2F200067A6911
:1019580006F590739A42054606D02846002401F001
:10196800D3F82046BDE8F081BC6A06F1F80084424D
:10197800F3D0002CF1D1D6F84C1101BB7068FC6A89
:10198800C26A07F104089442404634BF0024012487
:1019980001F0C6F9F96AD6F844310E4A994201EBCA
:1019A800810088BFC6F8441102EB8000414601F06F
:1019B8008FF9284601F0A8F82046BDE8F08107F124
:1019C800180101F085F9284601F09EF82046BDE887
:1019D800F08100BFB80000202DE9F843502001F045
:1019E80023F9044600287DD04FF42A7001F01CF931
:1019F8002063002800F0C680A5214FF42A7206F063
:101A080047FC206B492300274C2184F834304426B6
:101A18004523251D00F5297284F8373084F83610DF
:101A2800284684F8356084F8387084F84370E76293
:101A3800E76422F0070601F047F904F1180001F005
:101A480043F93A4642F2F5010A27C0F6000130464A
:101A58002461A761646201F00BF840F2B006C2F29B
:101A68000006206001F03CF83168481C306073685B
:101A7800002B3FD0D6F83C71002F35D006F108076F
:101A8800E36AD6F84001D6F8442140F2B00C411C74
:101A9800C2F2000C03EB830093426164C6F8401164
:101AA80007EB8000294688BFCCF8443101F010F9D3
:101AB80001F02EF8D6F83C4140F2B003C2F2000320
:101AC80004B15B6800F01AFF012804460AD100F04F
:101AD800FFFF0023C6F83C41C6F85031BDE8F84383
:101AE80001F076B8BDE8F8837368D96A0029C5D1D2
:101AF8007460C3E774603268012A06F10807BFD131
:101B0800384601F0D5F806F11C0001F0D1F806F1CD
:101B1800300001F0CDF806F1440001F0C9F806F1F3
:101B2800580001F0C5F806F16C0001F0C1F806F1A3
:101B3800800001F0BDF806F1940001F0B9F806F153
:101B4800A80001F0B5F806F1D00906F1BC0001F0D3
:101B5800AFF806F1E408484601F0AAF8404601F05B
:101B6800A7F806F1F80001F0A3F806F5867001F071
:101B78009FF806F5907001F09BF8C6F83491C6F806
:101B880038817DE72046BDE8F84301F07DB800BF05
:101B980008B500F09DFF40F2B003C2F20003002236
:101BA800C3F83C21BDE8084000F084BF40F2B00310
:101BB800C2F20003D3F84C01421CC3F84C21704711
:101BC80010B500F08DFF40F2B003C2F20003D3F865
:101BD800504100F09DFF204610BD00BF10B500F039
:101BE80077FF40F2B003C2F20003D3F8504100F08F
:101BF8008BFF204610BD00BF40F2B003C2F20003C5
:101C0800186870472DE9F84F40F2B004C2F200049A
:101C1800D4F84C31002B40F09280D4F85011481C75
:101C2800C4F85001D4F8509140F2600AC2F2000A98
:101C3800B9F1000F3DD0DAF80060B14522D3524F18
:101C48000026A7F10808D4F834010368002B4FD107
:101C58004FF0FF31CAF800106268D4F85811D36AFF
:101C680003EB830057F82020012A88BF0126C1B959
:101C7800FEF7A4FAD4F85C0100280CBF3046012016
:101C8800BDE8F88F404F00266268D4F85811D36A2F
:101C980003EB830057F82020012A88BF012600297A
:101CA800E6D0D4F85C0100280CBF30460120BDE81E
:101CB800F88FD4F83401D4F83811C4F83411C4F8C2
:101CC8003801D4F854315F1CC4F85471D4F8346125
:101CD8003268002A43D140F2600AC2F2000A4FF08B
:101CE800FF32CAF80020DAF80060B145A7D2C9E788
:101CF800D8F83411CD68ED686B68994540D305F183
:101D0800040B584601F00CF8AA6A1AB105F118003C
:101D180001F006F8E86AD4F8443100EB80029842F2
:101D280088BFC8F84401594607EB820000F0D0FF8D
:101D38006168E86ACB6A984228BF012683E7D4F82D
:101D480058114E1CC4F85861FEF738FAD4F85C01F3
:101D5800002600280CBF30460120BDE8F88FD4F8D3
:101D68003461F268D36840F2600AC2F2000A5F6820
:101D7800CAF80070DAF80060B145BFF460AF81E7D7
:101D8800CAF8003080E700BFB80000202DE9F8430A
:101D980040F2B005C2F2000500F0A2FED5F84C11E1
:101DA800481EC5F84C01D5F84C31002B4AD12C6897
:101DB800002C48D02E4605F108074FF0010820E016
:101DC800D6F80421D46804F1040904F1180000F0DD
:101DD800A7FF484600F0A4FFE06AD6F8441100EBDC
:101DE800800C884288BFC6F84401494607EB8C003E
:101DF80000F06EFF6B68E26ADC6AA24228BFC6F890
:101E08005C81D5F8F84040F2B003C2F20003002C20
:101E1800D6D1D3F8580188B1D3F8583173B1012419
:101E2800FFF7F0FE08B1C5F85C41D5F85801421E2D
:101E3800C5F85821D5F858110029F1D1D5F85C41D9
:101E4800012C05D0002400F063FE2046BDE8F8838D
:101E580000F032FEF7E700BF2DE9F84F40F2B0047A
:101E6800C2F200040546D4F84C315E1CC4F84C613B
:101E780023688B42164660D8D4F8BC70B846002F49
:101E880069D1D4F8A870002F6FD1D4F894104744C2
:101E98000846002977D1D4F8803000EB070B002BD7
:101EA8007DD1E76E03EB0B0A3846002F40F08680A1
:101EB800A16D00EB0A090846002940F08E80676C86
:101EC80000EB0908002F40F09680226B474410462B
:101ED800002A40F09F80E36900EB070B002B40F0DD
:101EE800A580A76803EB0B0A3846002F40F0AD80A9
:101EF800D4F834110A6800EB0A091046002A40F0A9
:101F0800B480D4F838110F6809EB0008002F40F0AE
:101F1800BB80D4F80C3147441846002B40F0C380EE
:101F2800D4F82031C41973B91C190EB100223260DB
:101F3800FFF72CFF2046BDE8F88F0024FFF726FFA7
:101F48002046BDE8F88F6101681803225C49FFF755
:101F580071FA0346E8E704F1BC010122FFF76AFAC7
:101F6800D4F8A8708046002F8FD04FEA4810554902
:101F780028180122FFF75EFAD4F894100746474460
:101F88000846002987D07A01A8184F490122FFF78F
:101F980051FAD4F8803000EB070B002B81D04FEAC0
:101FA8004B13E81849490122FFF744FAE76E034644
:101FB80003EB0B0A3846002F3FF47AAF4FEA4A1872
:101FC800434905EB08000122FFF734FAA16D00EB45
:101FD8000A09084600293FF472AF4FEA491A05EB8F
:101FE8000A003C490122FFF725FA676C00EB090853
:101FF800002F3FF46AAF4FEA4819012205EB0900A8
:102008003549FFF717FA226B074647441046002A5E
:102018003FF461AF7801281830490122FFF70AFA26
:10202800E36900EB070B002B3FF45BAF4FEA4B1360
:10203800E8182B490122FFF7FDF9A768034603EBCF
:102048000B0A3846002F3FF453AF4FEA4A1168187D
:1020580001222449FFF7EEF9D4F834110A6800EB9D
:102068000A091046002A3FF44CAF4FEA491C05EB19
:102078000C000222FFF7DEF9D4F838110F6809EBDB
:102088000008002F3FF445AF4FEA481E05EB0E004D
:102098000222FFF7CFF9D4F80C3107464744184617
:1020A800002B3FF43DAF780128180F490422FFF7B1
:1020B800C1F9D4F82031C419002B3FF435AF42E7F9
:1020C800D0010020580100204401002030010020E8
:1020D8001C01002008010020F4000020E00000207E
:1020E800CC000020B8000020BC01002070B540F2F0
:1020F800B006C2F20006344609E0D4F84C01D4F820
:102108000C51431CC4F84C31FFF740FE4DB9D6F8CA
:1021180048110029F1D1A268012AF8D900F0CCFCB5
:10212800F5E700F0DDFCD4F81851ED68281D00F043
:10213800F7FD2068431E2360D4F84821511EC4F8D7
:10214800481100F0E5FC286B00F09EFD284600F0E1
:102158009BFDDCE738B5034618B9BDE8384000F008
:10216800ABBC40F2B005C2F20005D5F84C21511CB9
:10217800C5F84C11D5F85041686804301C1900F0B6
:10218800CFFD6A68D5F8503154609C4214D3D5F815
:1021980034016968043100F0A9FD40F2600CC2F214
:1021A800000CDCF80000844238BFCCF80040FFF790
:1021B800EDFD0028D1D038BDD5F838016B68191D60
:1021C80000F094FDF3E700BF38B540F2B004C2F266
:1021D80000040368D4F84C516A1CC4F84C21D4F8A4
:1021E80050219A4201EB03050FD2AB4294BF002362
:1021F8000123954294BF002103F0010179B90560DC
:10220800FFF7C4FD00282DD038BDAB4294BF002392
:102218000123954288BF43F00103002BEFD061688A
:102228000560081D00F07CFD6268D4F85001556017
:1022380040F2B0038542C2F2000317D3D3F8340149
:102248005A68111D00F052FD40F2600CC2F2000CF9
:10225800DCF80000854238BFCCF80050FFF796FD47
:102268000028D1D1BDE8384000F026BCD3F83801A9
:102278005B68191D00F03AFDC2E700BF38B540F2AF
:10228800B004C2F20004D4F84C31002B41D1C4F898
:102298005C31656861682A68086B824243D9636863
:1022A80048F2F43140F2B005186BC0F60001142270
:1022B800C2F2000505F046FF00282ED1D4F84431BB
:1022C800234A03EB830152F8210060B9D4F8441182
:1022D800481EC4F84401D4F8443103EB830152F892
:1022E80021000028F2D0D4F8443103EB830E02EB2E
:1022F8008E0C0CF10800DCF804104B688342CCF813
:10230800043008BF5B68DA6808BFCCF80430626044
:1023180038BD0123C4F85C3138BD68686968343158
:10232800FDF74EFFCAE7606861683431FDF748FF82
:10233800636848F2F43140F2B005186BC0F600014A
:102348001422C2F2000505F0FDFE0028B6D0E4E72D
:10235800B8000020F8B5044640F2B00600F0C0FB13
:10236800C2F20006002C24D0271D384600F0D8FC05
:10237800A36A1BB104F1180000F0D2FC40F2B005CA
:10238800C2F2000505F59070394600F0A1FC00F096
:10239800BFFB7068844200D0F8BDD5F83C3163B902
:1023A8002A68D5F82011914205D0BDE8F840FFF71A
:1023B80065BF7468D8E76B60F8BDBDE8F84000F009
:1023C8007BBB00BF38B540F2B004C2F200040D4632
:1023D8006168183100F08AFC6068043000F0A0FCE5
:1023E8006A1C21D0D4F850016268D4F850312D18F5
:1023F8009D42556010D3D4F834016268111D00F075
:1024080075FC40F2600CC2F2000CDCF800309D4212
:1024180038BFCCF8005038BDD4F8380161680431B1
:10242800BDE8384000F062BC616804F59070043182
:10243800BDE8384000F04CBC38B540F2B004C2F2F8
:1024480000040D466168183100F042FC60680430F1
:1024580000F066FCD4F850116268D4F850316D1859
:102468009D42556010D3D4F834016168043100F0FE
:102478003DFC40F2600CC2F2000CDCF800209542F2
:1024880038BFCCF8005038BDD4F838016368191D3E
:10249800BDE8384000F02ABCC06870B5C56840F295
:1024A800B00405F11806C2F20004304600F038FC0A
:1024B800D4F84C31FBB92E1D304600F031FCE86AE7
:1024C800D4F84431144A984200EB800188BFC4F81C
:1024D800440102EB8100314600F0FAFB6068E96ACA
:1024E800C26A40F2B0039142C2F2000311D3012044
:1024F800C3F85C0170BD04F1F800314600F0E8FB58
:102508006068E96AC26A40F2B0039142C2F200030D
:10251800EDD2002070BD00BFB800002040F2B0032B
:10252800C2F20003D3F85421D3F8503180E80C00EC
:10253800704700BF70B50C46054600F0D1FA40F26E
:10254800B0032268C2F20003501CD3F850111DD00A
:10255800D3F854012E688642686801D0814210D2AF
:102568000E1AB2420DD9D3F85461D3F85031521A29
:102578001118216000242E606B6000F0C9FA204613
:1025880070BD012400F0C4FA204670BD002400F09C
:10259800BFFA204670BD00BF40F2B003C2F200038C
:1025A8000122C3F85C21704700B1806C704700BFFE
:1025B80000B18164704700BF40F2B003C2F200036B
:1025C8005868704740F2B003C2F20003D3F83C01E8
:1025D80028B1D3F84C01002814BF0220012070470D
:1025E800F8B50546C8B140F2B004C2F20004C36AA7
:1025F8006168CA6A934210D266684269F16A03EB5D
:10260800830C04F1080606EB8C03C1F10A019A4217
:10261800816103D06368DA6AC262F8BD071D384673
:1026280000F07EFB6168D4F84431CA6A02EB82008C
:102638009A4206EB80003946EA6288BFC4F8442112
:10264800BDE8F84000F044BB38B5044600B3C26AA0
:10265800C36C9A421CD0051D284600F061FB40F26D
:10266800B00CC2F2000CE06CDCF844210949E062CD
:102678009042C0F10A0388BFCCF8440100EB800007
:1026880001EB80002946A361BDE8384000F020BB7B
:1026980038BD00BFB80000202DE9F04340F21024F7
:1026A800C2F2000485B0254600262268116840F26F
:1026B8001023C2F2000309B3D068C768D0F80090AD
:1026C80007F10408404600F02BFB796A3846884732
:1026D800FB69012BE9D1BA6909EB0203994513D2C9
:1026E8007B6041463F61286800F000FB2268116862
:1026F80040F21023C2F200030029DDD198689A60E5
:10270800186005B0BDE8F0836B68002BCDD001964A
:10271800CDF808900397FFF755FF0022686801A9D4
:102728001346FEF7C7FBC0E72DE9F04740F2102437
:10273800C2F2000488B00027254623681E68D6F137
:10274800010638BF00264FF0000916B9DB68D3F838
:102758000090FFF72BFAFFF733FAE16888428046CA
:10276800C0F09E8086F0010281458CBF002202F0F5
:102778000102E860002A00F08780FFF707FB2B685A
:10278800DE68F66806F1040A504600F0C9FAF069F6
:10279800012800F08C80736A3046984760680022F0
:1027A80002A91346FEF740FC0028C6D0049E7169B2
:1027B80011B1301D00F0B4FAFFF702FAE268904256
:1027C80030D3029BE060022B34D0032B25D0002BA2
:1027D80026D1039BB1693661CA188242726036D825
:1027E800C3EB000841454AD83046716A8847F36907
:1027F8006068012BD3D1039BB2690028CFD0D218CF
:10280800069205970796FFF7DDFE0022686805A97E
:102818001346FEF74FFB6868C1E7304600F034FA0C
:102828006868BCE70190FFF737FF029B0198022B0D
:10283800E060CAD1039B3661C1188842B3617160F8
:1028480015D22868311D00F051FA6868A7E793424D
:102858008CBF00220122834294BF002002F00100B5
:102868000028C1D12868311D00F040FA96E7002BF6
:10287800D6D0A868311D00F039FA68688FE7A868D3
:10288800311D00F033FA89E76868C8EB0901FEF7E3
:10289800B1FDFFF77BFA002880D100F00DF97DE744
:1028A800FFF7FAFEC5F80C80FFF770FA76E7B36910
:1028B800366109EB03018845716014D3C9EB08023E
:1028C800934215D8686800283FF465AF0297CDF8A1
:1028D8000C900496FFF776FE0022686802A913465A
:1028E800FEF7E8FA57E72868514600F0FFF952E783
:1028F800A868514600F0FAF94DE700BFF0B540F27C
:102908001024C2F2000485B000F0EAF86768BFB18D
:1029180000F0FEF8606888B1002442F2317048F295
:1029280020410425C0F60000C0F60001AA22234673
:102938000095019402940394FEF7C0FD05B0F0BD24
:1029480004F11006304604F1240500F0B1F92846D8
:1029580000F0AEF90A200C213A462660A560FEF781
:1029680085F96060D4E700BF2DE9F04F0C4683B0CD
:10297800824693461F460D46C9B1282000F054F9F7
:102988000546A0B140F21026C2F2000600F0A8F8F1
:10299800726882B100F0BCF80C9BC5F800A0AC616D
:1029A800C5F81CB02F626B62281D00F08DF928460F
:1029B80003B0BDE8F08F06F11009484606F1240877
:1029C800019200F075F9404600F072F90A200C21D6
:1029D800019AC6F80090C6F80880FEF747F97060BB
:1029E800D8E700BF30B540F21024C2F2000487B027
:1029F8006568002D1BD00391049205903BB11A46DF
:102A0800284603A90023FEF7D1FA07B030BD019389
:102A1800FFF7D8FD019B012805BF60680A9A606826
:102A280003A91CBF1A4603A9FEF744FAEDE7284696
:102A3800EBE700BF10B5044600F052F864690034B3
:102A480018BF012400F064F8204610BD006A7047E2
:102A580073480068006880F3088862B600DF00BF2A
:102A6800DFF8C001016841F470010160704700BFE0
:102A780042F60933C0F6000310B440F80C3C4FF09E
:102A880080746FF0020300E9120040F8202C40F82F
:102A9800243C443810BC7047054B19680868B0E8F6
:102AA800F04F80F309884FF0000080F311887047D9
:102AB800B4000020704700BF4EF60453CEF2000366
:102AC8004FF080521A60BFF34F8FBFF36F8F70477C
:102AD800EFF311804FF0500181F311887047002007
:102AE80008B5FFF7F5FF40F26403C2F20003186867
:102AF800421C1A60BFF34F8FBFF36F8F08BD00BF32
:102B080008B5FFF7E5FFFEE780F31188704700BFBF
:102B180040F26403C2F2000318680138186000B17B
:102B28007047FFF7F1BF00BFEFF30980114B1A6838
:102B38001EF0100F08BF20ED108A20E9F04F10603A
:102B48004DF8043D4FF0500080F31188FFF796FBD5
:102B58004FF0000080F3118808BC19680868B0E8D5
:102B6800F04F1EF0100F08BFB0EC108A80F30988F0
:102B7800704700BFB400002008B5FFF7A9FFFFF7B2
:102B880041F830B14EF60453CEF200034FF08052B4
:102B98001A600020BDE80840FFF7B6BF40F2100CED
:102BA800C2F2000C44F6D350DCF80030C1F26200E7
:102BB800A0FB03314EF214004EF210038A09CEF244
:102BC8000000CEF20003511E072201601A60704710
:102BD80008B54EF6205ECEF2000EDEF8001041F485
:102BE8007000CEF80000DEF8003043F07042CEF8F6
:102BF8000020FFF7D3FF40F2640CC2F2000C002162
:102C0800CCF80010FFF72CFF4EF63473CEF2000319
:102C1800186840F040421A60FFF71AFFFFF770FF8C
:102C280008ED00E088ED00E038B5430705461CBF15
:102C380020F007050835FEF7B9FF40F24823C2F235
:102C480000031C68CCB144F22863C2F2000344F6C6
:102C5800F771D3F8242CAD188D4209D8AA423CBF8D
:102C6800A418C3F8245C03D2FFF790F8204638BDB7
:102C78000024FFF78BF8204638BD03F10C0424F03C
:102C880007041C60DFE700BF704700BF44F22863F9
:102C9800C2F200030022C3F8242C704744F22863D0
:102CA800C2F20003D3F8240CC0F59E40F8307047F8
:102CB80000F108014FF0FF32002341608260C160DB
:102CC80001610360704700BF00230361704700BFC4
:102CD80090E80C0010B49C684B608C609C6808619C
:102CE800013261609960026010BC704730B40D68B1
:102CF8006B1C18BF00F1080201D10EE01A46536898
:102D08001C68A542FAD204684B600134996051608E
:102D18008A600861046030BC704702695368F2E752
:102D280010B4426884680369946081685C684A608A
:102D38001A68844208BF5960013A002101611046AF
:102D48001A6010BC704700BF4FF46D4340F0BE617D
:102D5800CEF2000341F42020D8607047C37830B425
:102D68007BB900784FF4614C410900F01F02CEF2A4
:102D7800000C2031012313FA02F04CF8210030BC7A
:102D880070474FF46D45CEF200054278EC688578BF
:102D98000178E343C3F30223C3F1040C5FFA8CF414
:102DA80012FA04F40F2252FA03F34FF4614C03EAC7
:102DB8000502CEF2000CE4B2614442EA04031A01AF
:102DC80081F8002302784FF4614C5109CEF2000CCF
:102DD80002F01F03012010FA03F24CF82120CEE77D
:102DE80021F0604C4FF46D432CF07F02CEF20003CB
:102DF80042EA0001996070474FF46D43CEF2000338
:102E08001A6919B922EA000119617047104318615B
:102E1800704700BF4EF21003CEF2000304281A6870
:102E28000CBF42F0040222F004021A60704700BF8F
:102E38004FF46053C4F202030022186840F0010105
:102E480019609A60186843F2100120F0847C2CF411
:102E58008030C2F2004118605960186820F480215F
:102E68001960DA60704700BF43F60203C4F2020338
:102E780000221A701870704782B04FF46051002316
:102E88000193C4F202010A680198431C0193019856
:102E9800B0F5A06F01D09303F5D54FF46052C4F29A
:102EA80002021168C1F3404002B070474FF460530A
:102EB800C4F202031A6822F0F80141EAC0021A605B
:102EC800704700BF0023C4F247231860704700BF53
:102ED80043F67003C4F20203002201281A701A7024
:102EE80004D0042801D10520187070471870704765
:102EF8004FF46863C4F2472318607047084340EAF8
:102F0800821C009A5B084FF460504CEA0261013B56
:102F1800C4F2020041EA0342426070476023C4F2EF
:102F280047231860704700BF4FF460538001C4F214
:102F3800020340EA0171C3F8841070476823C4F2A1
:102F480047231860704700BF4C23C4F2472318601A
:102F5800704700BF4FF46053C4F202039A6822F02E
:102F6800EC6C40EA0C0040EA01029A60704700BF2E
:102F78004FF46053C4F202039A6822F0784C40EA96
:102F88000C0040EA01029A60704700BF4FF460539A
:102F9800C4F202039A6822F0030140EA01029A602F
:102FA800704700BF4FF46053C4F20203986800F002
:102FB8000C0070474FF46053C4F202039A6822F081
:102FC800F00140EA01029A60704700BF4FF4605375
:102FD800C4F202039A6822F4E05140EA01029A60BE
:102FE800704700BF4FF46053C4F202039A6822F49A
:102FF800604141EAC0029A60704700BF4FF46053D5
:10300800C4F2020310B49A6802F00C02042A02BF48
:103018004FF49051C0F27A01016007D0082A1EBF10
:103028004FF41051C0F2F401016020D04FF4605306
:10303800C4F2020340F2680C9A68C2F2000CC2F3B0
:1030480003141CF80420D14041609C68C4F3822218
:103058001CF8024031FA04F484609A68C2F34233DF
:103068001CF8032031FA02F3C36010BC70475C6897
:103078005A68596814F4800F4FF4605C14BF4FF419
:1030880090534FF41053C4F2020C14BFC0F27A03E9
:10309800C0F2F40302F03F02C1F38814B3FBF2F16B
:1030A800DCF80430C3F3014201FB04F1541C630053
:1030B800B1FBF3F10160B9E700F44073B3F5407F69
:1030C8000FD14FF4605CC4F2020C20F07043DCF8BE
:1030D800082023F4407122F4F81341EA0302CCF8E3
:1030E80008204FF4605CC4F2020C0305DCF8702081
:1030F800190D41EA0200CCF87000704740F63C63B5
:10310800C4F24723186070474FF46463C4F247233E
:10311800186070474FF4AE73C4F2472318607047C5
:103128004FF46053C4F202031A6B19B922EA000182
:103138001963704710431863704700BF4FF460531A
:10314800C4F202035A6B19B922EA000159637047A5
:1031580010435863704700BF4FF46053C4F2020332
:103168009A6B19B922EA0001996370471043986372
:10317800704700BF4FF46053C4F202031A6C19B9C8
:1031880022EA00011964704710431864704700BFB1
:103198004FF46053C4F202035A6C19B922EA0001D1
:1031A8005964704710435864704700BF4FF4605328
:1031B800C4F202031A6919B922EA000119617047B9
:1031C80010431861704700BF4FF46053C4F2020304
:1031D8005A6919B922EA00015961704710435861C8
:1031E800704700BF4FF46053C4F202039A6919B9DB
:1031F80022EA00019961704710439861704700BF47
:103208004FF46053C4F202031A6A19B922EA0001A2
:103218001962704710431862704700BF4FF460533B
:10322800C4F202035A6A19B922EA000159627047C6
:1032380010435862704700BF4FF46053C4F2020352
:103248001A6D19B922EA000119657047104318650B
:10325800704700BF4FF46053C4F202035A6D19B9A6
:1032680022EA00015965704710435865704700BF4E
:103278004FF46053C4F202039A6D19B922EA0001AF
:103288009965704710439865704700BF4FF46053C5
:10329800C4F202031A6E19B922EA000119667047CE
:1032A80010431866704700BF4FF46053C4F202031E
:1032B8005A6E19B922EA00015966704710435866D8
:1032C800704700BF43F60D03C4F202031A7819B918
:1032D80022EA00011970704710431870704700BF48
:1032E8004309012B0ED0022B4FF46053C4F20203A2
:1032F80000F01F010CBF1B6F5B6F33FA01F000F089
:10330800010070474FF46053C4F2020300F01F013C
:103318001B6833FA01F000F0010070474FF4605366
:10332800C4F20203586F40F080725A67704700BFBA
:103338004FF46051C4F20201CB6818420CBF002060
:103348000120704743F60E03C4F202031870704759
:103358004FF47053C4F201034FF6FF710022C0F21C
:103368007F011A605A609A60DA605961704700BF3D
:10337800837970B443B34FF47053C4F20103016806
:103388001E6802794579CC4326401E605E6802F1CA
:10339800804C0CF59E3234405C6014682143116007
:1033A80002689868D14308409860D868102D01EAEF
:1033B8000001D96016D005F1804505F59E352868CD
:1033C80040EA02032B600BE00279016802F18040B9
:1033D80000F59E3CDCF8003023EA0102CCF800201E
:1033E80070BC7047996841EA02009860D96841EA60
:1033F8000200D860F4E700BF00230C2203600371C9
:1034080042718371704700BF4FF47053C4F20103D7
:10341800196940EA01021A61704700BF4FF4705100
:10342800C4F201014B6918420CBF0020012070470B
:103438004FF47053C4F20103586170474FF4705150
:10344800C4F201010A684B69034004D010420CBF62
:103458000020012070471846704700BF4FF4705392
:10346800C4F201035861704708B50023C4F202038F
:1034780098423CD04FF48061C4F20201884240D0A7
:103488004FF40062C4F20202904244D04FF4406C00
:10349800C4F2020C604548D04FF48053C4F20203D2
:1034A80098424CD04FF4A051C4F20201884250D047
:1034B8004FF4C052C4F20202904254D04FF4E05C80
:1034C800C4F2020C604558D04FF40053C4F2020312
:1034D800984200D008BD01214FF48070FFF766FEC6
:1034E8004FF480700021BDE80840FFF75FBE01205F
:1034F8000146FFF75BFE01200021BDE80840FFF709
:1035080055BE02200121FFF751FE02200021BDE82F
:103518000840FFF74BBE04200121FFF747FE0420B7
:103528000021BDE80840FFF741BE08200121FFF750
:103538003DFE08200021BDE80840FFF737BE1020F7
:103548000121FFF733FE10200021BDE80840FFF7F6
:103558002DBE20200121FFF729FE20200021BDE8F3
:103568000840FFF723BE40200121FFF71FFE40203F
:103578000021BDE80840FFF719BE80200121FFF7B0
:1035880015FE80200021BDE80840FFF70FBE00BFF0
:103598002DE9F00F002484B00B68224601254FF076
:1035A800030821E0013215FA02F606EA030702349D
:1035B800B7424DD0571C05FA07F6019706EA0307EC
:1035C800B74204F1020C73D0961C05FA06F909EA11
:1035D80003074F45019604F1040C00F0998003326B
:1035E8000634102A00F0BD8015FA02F606EA030731
:1035F800B742D7D1D0F8009091F804C008FA04F681
:10360800F64306EA090AC0F800A0D0F800900CFAC0
:1036180004FA0CF1FF3C5FFA8CFC4AEA0909BCF198
:10362800010FC0F8009040F2A080C76891F8079099
:103638003E40C660C76809FA04FC4CEA0706013236
:10364800C66015FA02F606EA03070234B742B1D19A
:10365800D0F8009091F804C008FA04F6F64306EA98
:10366800090AC0F800A0D0F800900CFA04FA0CF18E
:10367800FF3C5FFA8CFC4AEA0909BCF1010FC0F86B
:10368800009040F29280C76891F807903740C76071
:10369800C66809FA04FC4CEA0607C760571C05FA15
:1036A80007F6019706EA0307B74204F1020C8BD12B
:1036B800D0F800A091F804B008FA0CF66FEA0609F1
:1036C80009EA0A0AC0F800A006680BFA0CFA0BF11E
:1036D800FF3B5FFA8BFB4AEA060ABBF1010FC0F811
:1036E80000A040F28280C768CE7909EA0707C76060
:1036F800C76806FA0CF63743961C05FA06F9C76040
:1037080009EA03074F45019604F1040C7FF467AFFB
:10371800D0F800A091F804B008FA0CF66FEA060990
:1037280009EA0A0AC0F800A006680BFA0CFA0BF1BD
:10373800FF3B5FFA8BFB4AEA060ABBF1010FC0F8B0
:1037480000A077D9C768CE7909EA0707C760C768B4
:1037580006FA0CF603323E430634102AC6607FF49C
:1037680043AF04B0BDE8F00F7047D0F808A091F857
:1037780006C091F8059006EA0A0AC0F808A0D0F831
:1037880008A009FA04F949EA0A09C0F80890D0F82B
:10379800049029EA0707476047680CFA02F91FFAFC
:1037A80089FC4CEA070747603FE7D0F808A091F882
:1037B80006C091F8059006EA0A0AC0F808A0D0F8F1
:1037C80008A009FA04F949EA0A09C0F80890D0F8EB
:1037D800049029EA0707476047680CFA02F91FFABC
:1037E80089FC4CEA070747604DE7D0F808A091F834
:1037F80005B08E79CDF808B009EA0A0AC0F808A021
:103808000396029ED0F808B006FA0CF646EA0B0AB0
:10381800C0F808A0D0F804B0DDF80CA02BEA070720
:10382800DDF804B0476047680AFA0BF6B6B23E43C3
:10383800466058E7D0F808A091F805B08E79CDF821
:1038480008B009EA0A0AC0F808A00396029ED0F850
:1038580008B006FA0CF646EA0B0AC0F808A0D0F839
:1038680004B0DDF80CA02BEA0707DDF804B04760C8
:1038780047680AFA0BF6B6B23E43466062E700BFF5
:103888004FF6FF72002380E80C00704782B04FF4B7
:1038980080320192019B41EA03020192019BC361BC
:1038A800C161019AC261C1690191C369019302B002
:1038B800704700BF036919420CBF00200120704700
:1038C800006980B2704700BF436919420CBF0020ED
:1038D80001207047406980B2704700BF018370477C
:1038E800418370470AB9418370470183704700BF1D
:1038F80041617047426981EA02034361704700BF32
:10390800CB08083301F0070130B4890050F8235080
:103918000F248C4025EA040440F8234050F8234043
:1039280012FA01F10C4340F8234030BC704700BF45
:1039380008B50023C4F2010398425BD0B0F1804F70
:1039480062D04FF48061C4F20001884266D04FF41F
:103958000062C4F2000290426AD04FF4406CC4F294
:10396800000C60456ED04FF48053C4F200039842B7
:1039780072D04FF4A051C4F20001884276D04FF4BF
:103988008062C4F2010290427AD04FF4804CC4F2B3
:10399800010C60457ED04FF48843C4F2010398427D
:1039A80000F084804FF49041C4F20101884200F095
:1039B80089804FF4C052C4F20002904200F08E8019
:1039C8004FF4E05CC4F2000C604500F091804FF4C5
:1039D8000053C4F20003984200D008BD01214FF4FF
:1039E8008070FFF70DFC4FF480700021BDE808409F
:1039F800FFF706BC01200146FFF710FC012000215B
:103A0800BDE80840FFF70ABC01200146FFF7F8FBB4
:103A180001200021BDE80840FFF7F2BB0220012188
:103A2800FFF7EEFB02200021BDE80840FFF7E8BBE6
:103A380004200121FFF7E4FB04200021BDE8084031
:103A4800FFF7DEBB08200121FFF7DAFB0820002181
:103A5800BDE80840FFF7D4BB10200121FFF7D0FBD9
:103A680010200021BDE80840FFF7CABB2020012133
:103A7800FFF7C6FB20200021BDE80840FFF7C0BBC8
:103A880002200121FFF7CAFB02200021BDE80840FF
:103A9800FFF7C4BB01214FF48030FFF7BFFB4FF4A1
:103AA80080300021BDE80840FFF7B8BB01214FF482
:103AB8000030FFF7B3FB4FF400300021BDE80840A9
:103AC800FFF7ACBB01214FF48020FFF7A7FB4FF4B1
:103AD80080200021BDE80840FFF7A0BB402001215D
:103AE800FFF78EFB40200021BDE80840FFF788BBA8
:103AF80080200121FFF784FB80200021BDE80840D9
:103B0800FFF77EBB0023C4F2010330B4C51A6B4231
:103B18004FF48062C4F2010243EB0503904208BFF0
:103B280043F00103048883B9A0F1804CDCF100055F
:103B38004FF48062C4F2000245EB0C0C904214BFB3
:103B480062464CF00102002A2CD04FF68F72B1F871
:103B580002C0144044EA0C044FF48055C4F2000536
:103B6800421B4FF4A05CC4F2000C18BF0122604550
:103B78000CBF002502F0010535B14FF6FF42B1F840
:103B880008C0144044EA0C044D68B1F800C0048031
:103B9800C562A0F828C00BB1897A01860123838207
:103BA80030BC70474FF40065C4F20005C5EB000C4B
:103BB800DCF100054FF44062C4F2000245EB0C054D
:103BC800904214BF2A4645F00102002AC4D0BCE73F
:103BD80000234FF0FF3141600380038143808372EB
:103BE800704700BF01858282704700BFB0F800C0EF
:103BF8002CF0700213041A0C41EA02030380704788
:103C080041627047C1627047406A7047008D80B258
:103C1800704700BF038829B923F002010B041A0C6E
:103C28000280704799B241F002030380704700BFD9
:103C3800038829B923F004010B041A0C0280704789
:103C480099B241F004030380704700BF038829B983
:103C580023F080010B041A0C0280704799B241F0DE
:103C680080030380704700BF028822F008031A040B
:103C7800130C0380B0F800C01FFA8CF241EA02036B
:103C880003807047028822F440731A04130C0380DF
:103C9800B0F800C01FFA8CF241EA020303807047B3
:103CA800038829B923F001010B041A0C028070471C
:103CB80099B241F001030380704700BF2DE9F0017C
:103CC800058CB1F802808F89B1F800C025F0010297
:103CD8001604340C0484058C8488038B0026C4F2F3
:103CE800010623F0730225F0020312041B044FF4AB
:103CF8008065B04214BF0026012648EA0707C4F2CF
:103D08000105120C1B0CBFB2A84214BF354646F081
:103D1800010542EA0C023B43C5B14FF6F775B1F80D
:103D28000EC0B1F812800F8A8E881D4045EA0C0C2F
:103D38004FF6FB734FF6FF4548EA07070CEA030303
:103D480025401FFA87FC33434CEA050489688480C0
:103D5800028341630384BDE8F00170472DE9F00157
:103D6800068CB1F80080B1F80CC04F8826F010031B
:103D78001D042C0C0484028C8488068B22F02005F8
:103D880026F4E6430026C4F201061A042B04120C9A
:103D98001B0C4FF48065B042C4F2010514BF002625
:103DA800012643EA0C13A84214BF354646F0010524
:103DB80042EA082243EA0713BDB1CD89B1F810C021
:103DC800B1F804804F8A4FF67F761E4046EA051602
:103DD8004FF2FF354FF6BF73254045EA8C0C06EAD3
:103DE800030444EA08134CEA870489688480028340
:103DF80081630384BDE8F001704700BF038CB1F80C
:103E080000C02DE9F00123F480752A04140CB1F8E0
:103E18000C804F880484068C8488838B26F4007574
:103E28000026C4F201062A0423F073031B04120CB3
:103E38004FF48065B04214BF00260126C4F2010584
:103E48001B0C42EA0822A84214BF354646F0010579
:103E580043EA0C0342EA0722BDB1CD89B1F810C08C
:103E6800B1F804804F8A4FF2FF76164046EA0526DD
:103E78004CF6FF754FF6FF32254045EA0C1C06EA62
:103E8800020444EA08224CEA071489688480838380
:103E9800C1630284BDE8F001704700BF2DE9F0015D
:103EA800068CB1F80080B1F80CC04F8826F4805316
:103EB8001D042C0C0484028C8488868B22F4005503
:103EC80026F4E6430026C4F201061A042B04120C59
:103ED8001B0C4FF48065B042C4F2010514BF0026E4
:103EE800012643EA0C33A84214BF354646F00105C3
:103EF80042EA082243EA073335B14BF6FF7C0E8AC3
:103F080004EA0C0545EA8614896884808283016482
:103F18000384BDE8F0017047002303804380838059
:103F280083608381C38103824382704730B4048CE9
:103F38000123A5B213FA01F4D1F1010338BF00231C
:103F480025EA0404082908BF43F0010300F1180515
:103F5800048483B90439C1F34E0148F6FF7C4B59F8
:103F680003EA0C00485112024B5990B243EA00028E
:103F78004A5130BC704749084FF68F7C485900EACF
:103F88000C034B51485902434A51F2E741637047C9
:103F980081637047C163704701647047B0F818C007
:103FA8002CF0700213041A0C41EA020303837047D1
:103FB800B0F818C02CF4E04213041A0C42EA0123AA
:103FC80003837047B0F81CC02CF0700213041A0C5D
:103FD80041EA020383837047B0F81CC02CF4E04226
:103FE80013041A0C42EA012383837047B0F818C0FF
:103FF8002CF0080213041A0C41EA020303837047E9
:10400800B0F818C02CF4006213041A0C42EA012319
:1040180003837047B0F81CC02CF0080213041A0C74
:1040280041EA020383837047B0F81CC02CF4006295
:1040380013041A0C42EA012383837047B0F818C0AE
:104048002CF0040213041A0C41EA0203038370479C
:10405800B0F818C02CF4806213041A0C42EA012349
:1040680003837047B0F81CC02CF0040213041A0C28
:1040780041EA020383837047B0F81CC02CF48062C5
:1040880013041A0C42EA012383837047B0F818C05E
:104098002CF0800213041A0C41EA020303837047D0
:1040A800028B53045A0C42EA01230383704700BF72
:1040B800B0F81CC02CF0800213041A0C41EA020369
:1040C80083837047828B53045A0C42EA012383830B
:1040D800704700BFB0F820C02CF0020213041A0C7D
:1040E80041EA020303847047B0F820C02CF00802AC
:1040F80013041A0C41EA020303847047B0F820C085
:104108002CF0200213041A0C42EA011303847047AE
:10411800B0F820C02CF0800213041A0C42EA0113F4
:1041280003847047B0F820C02CF4007213041A0CF2
:1041380042EA012303847047B0F820C02CF40062DF
:1041480013041A0C42EA012303847047B0F820C014
:104158002CF4005213041A0C42EA0133038470470A
:1041680010B4048C01238B40A4B224EA0303038413
:10417800B0F820C012FA01F141EA0C03038410BC24
:10418800704700BF10B4048C04238B40A4B224EA07
:1041980003030384B0F820C012FA01F141EA0C03CA
:1041A800038410BC704700BF0B88F0B4002B33D0D9
:1041B800042B5FD0082B038C00F08B8023F48052F3
:1041C8004F888E880D89CC8811040B0C0384B0F8B5
:1041D8001CC0028C22F400512CF440734A04520C87
:1041E80019050B0D42EA073143EA06238AB243EA6E
:1041F800053C42F48051A0F81CC00184828B22F453
:1042080040610B041A0C8283818B8BB243EA042C25
:10421800A0F81CC0F0BC7047B0F820C04E888D884C
:104228000F89CC882CF0010211040B0C0384028B3B
:10423800B0F820C022F0F3010B041A0C2CF00A018C
:1042480042EA07120B041FFA82FC46F001011B0C1C
:104258004CEA05020B4302830384B0F818C02CF023
:104268000C0211040B0C0383028B91B241EA040384
:104278000383CFE7028C4E888D880F89CC8822F083
:1042880010031A04110C0184038BB0F820C023F426
:10429800407211052CF0A0030A0D19040B0C43EA17
:1042A800061C42EA073291B21FFA8CF242F0100360
:1042B80041EA052101830384B0F818C02CF4406258
:1042C80011040B0C0383028B91B241EA042303838C
:1042D800A0E723F480724E888D880F89CC8811045A
:1042E8000B0C0384828BB0F820C022F0F3012CF46D
:1042F80020630A041904120C0B0C42EA071C43EA57
:1043080006211FFA8CF28BB242EA050C43F4807145
:10431800A0F81CC00184828B22F00C0319040A0C3B
:104328008283838B1FFA83FC4CEA0401818371E743
:1043380000230122038043808280C3800381704769
:104348002DE9F0018A88B1F802800B88B8F1000FD6
:104358000CBF02250025012A14BF4FF480744FF4C6
:10436800007414BF4FF0010C4FF0020C002B4FD01B
:10437800038C0F89CE8823F0100421040B0C0384CE
:10438800048B038C24F440710C0523F0A00109046C
:10439800230D43EA07340B0C43EA0811A4B244EA9C
:1043A80002238AB242F0100103830184028B22F4B3
:1043B800406319040A0C0283038B99B241EA06226E
:1043C8000283038C23F001010A04130C0384018B7C
:1043D800038C21F0F302110423F00A030A0C1904D8
:1043E80042EA07120B0C43F0010391B241EA0C02B6
:1043F8001D4302830584018B21F00C031A04110C60
:104408000183038B9AB216430683BDE8F001704717
:10441800B0F820C00F89CE882CF001010B04190CCC
:104428000184038BB0F820C023F0F3010B04190CAE
:104438002CF00A031B0441EA071C1FFA8CF11B0C21
:1044480048F001080A4343EA080C0283A0F820C098
:10445800018B21F00C031A04110C0183038B1FFA42
:1044680083FC4CEA06020283018C21F010031A0433
:10447800110C0184038BB0F820C023F4407211059D
:104488002CF0A0030A0D190442EA07320B0C43F082
:10449800100391B20C4343EA051504830584B0F870
:1044A80018C02CF4406211040B0C0383028B91B2E8
:1044B80041EA06260683A8E7406B7047806B704781
:1044C800C06B7047006C7047028B22F00C031A0413
:1044D800130C0383B0F818C01FFA8CF241EA0203E8
:1044E80003837047028B22F440631A04130C03837E
:1044F800B0F818C01FFA8CF242EA01230383704710
:10450800828B22F00C031A04130C8383B0F81CC0AE
:104518001FFA8CF241EA020383837047828B22F4EC
:1045280040631A04130C8383B0F81CC01FFA8CF282
:1045380042EA0123838370470B88B1F802C08A8955
:10454800F0B48F88CE880D894C894CEA030C4CEA6C
:10455800070141EA060343EA050C4CEA040141EA73
:104568000203A0F84430F0BC704700BF002303806A
:1045780043808380C380038143818381704700BF68
:10458800B0F8443021B95B045A0CA0F844207047B5
:104598006FEA43416FEA5143A0F84430704700BFC7
:1045A800838829B923F004010B041A0C8280704710
:1045B80099B241F004038380704700BF838829B90A
:1045C80023F001010B041A0C8280704799B241F064
:1045D80001038380704700BF83899BB21AB923EA1D
:1045E8000102828170471943818170478182704737
:1045F800038A19420CBF002001207047C943018279
:10460800704700BF038A828911420CBF0020012035
:1046180019420CBF002000F001007047C943018215
:10462800704700BF0A43A0F84820704783899BB2AF
:104638001AB923EA010282817047194381817047C0
:10464800838829B923F008010B041A0C828070476B
:1046580099B241F008038380704700BFB0F808C0E2
:104668002CF0070211040B0C03817047028922F019
:1046780070031A04130C41EA030CA0F808C002895D
:1046880091B241F007030381704700BF602930B43D
:10469800048C29D024F0010425042C0C0484058BF7
:1046A800B0F820C025F0F30425042CF00A042404F3
:1046B8002D0C240C45F0010544F0010445EA0313D0
:1046C800224303830284B0F808C02CF0700213045C
:1046D8001A0C41EA020CA0F808C003899AB242F009
:1046E8000701018130BC704724F010052C04250C0B
:1046F8000584048BB0F820C024F440752CF0A00485
:104708002D0524042D0D240C45F4807544F0100467
:1047180045EA033344EA021203830284D3E700BF65
:1047280010B404895FFA84FC41EA0C0142EA0104EE
:1047380044EA03240481018921F077031A04110C47
:1047480041F07703038110BC704700BF10B404899F
:104758005FFA84FC41EA0C0142EA010444EA0324BA
:104768000481028991B241F48043038110BC7047EF
:10477800B0F808C02CF0700213041A0C41EA0203C6
:1047880003817047828822F070031A04130C838017
:10479800B0F804C01FFA8CF241EA02038380704724
:1047A800028922F007031A04130C0381B0F808C029
:1047B8001FFA8CF241EA020303817047028922F052
:1047C80080031A04130C0381B0F808C01FFA8CF296
:1047D80041EA02030381704710B404895FFA84FC3C
:1047E80041EA0C0142EA010444EA0324048110BCB2
:1047F800704700BFB0F808C070B4058B068C25F46C
:10480800407424F0030426F022052E0424042CF01E
:104818000705360C2D04240C16432D0C44F4807423
:1048280046EA0316294344F00104018104830684FF
:1048380070BC7047838829B923F080010B041A0CD7
:104848008280704799B241F080038380704700BF2F
:10485800A0F85010704700BF08B54FF48053C4F259
:104868000103984228D04FF48841C4F200018842DD
:104878002CD04FF49042C4F20002904232D04FF450
:10488800984CC4F2000C604538D04FF4A043C4F2F1
:10489800000398423ED04FF4A051C4F2010188426F
:1048A80000D008BD20200121FEF7B8FC20200021FF
:1048B800BDE80840FEF7B2BC10200121FEF7AEFCAF
:1048C80010200021BDE80840FEF7A8BC01214FF4E4
:1048D8000030FEF795FC4FF400300021BDE8084099
:1048E800FEF78EBC01214FF48020FEF789FC4FF4BF
:1048F80080200021BDE80840FEF782BC01214FF46A
:104908000020FEF77DFC4FF400200021BDE80840A0
:10491800FEF776BC01214FF48010FEF771FC4FF4CE
:1049280080100021BDE80840FEF76ABC028AB1F891
:104938000CC022F44053F0B50446B1F806E08E8866
:1049480048890F890D4619040A0C42EA0E0323828E
:10495800A18921F4B05222F00C0347EA060E19048B
:104968004EEA0006B2B2080C42EA0003A381B4F88A
:1049780014E02EF440710E04320C42EA0C0085B0AB
:10498800A0826846FEF73AFB4FF48053C4F2010355
:10499800E11A4E424FF4A050C4F2010046EB010266
:1049A800844214BF134642F00103002B28D0A68985
:1049B800039B30B2002828DB2E6803EB830303EB4C
:1049C800830EB000BEFBF0F148F21F53A089C5F278
:1049D800EB13A3FB015672090FFA80FC160164253C
:1049E800BCF1000F02FB151218DB10013230A3FBDB
:1049F8000053C3F3431545EA0603238105B0F0BD10
:104A0800A689029B30B20028D6DA2A6803EB830C09
:104A18000CEB8C015500B1FBF5F1D5E7D200323231
:104A2800A3FB021ECEF3421141EA0603E5E700BFED
:104A380000234FF416510C2201608380C380038148
:104A480042818381704700BF0A88038A30B44D8849
:104A58008C88C98845EA020C4CEA040223F4706386
:104A68001B0442EA010C1FFA8CF2190C42EA0103FA
:104A7800038230BC704700BF0023038043808380DB
:104A8800C3807047838929B923F400510B041A0C99
:104A98008281704799B241F400538381704700BF07
:104AA800028B02F47F430383B0F818C01FFA8CF21C
:104AB80041EA020303837047838919B95B045A0CDE
:104AC800828170476FEA43416FEA5143838170479F
:104AD800838A29B923F400610B041A0C8282704777
:104AE80099B241F400638382704700BFCA05D10DB3
:104AF800818070478188C805C00D7047028A22F0FE
:104B08000F031A04130C0382B0F810C01FFA8CF2BA
:104B180041EA020303827047838929B923F002011D
:104B28000B041A0C8281704799B241F00203838109
:104B3800704700BF828922F400631A04130C838132
:104B4800B0F80CC01FFA8CF241EA02038381704767
:104B5800028A22F020031A04130C0382B0F810C052
:104B68001FFA8CF241EA020303827047038A29B9CB
:104B780023F480410B041A0C0282704799B241F465
:104B880080430382704700BF828991B241F00103DC
:104B980083817047838A29B923F008010B041A0C12
:104BA8008282704799B241F008038382704700BF40
:104BB800028BD3B20383B0F818C01FFA8CF242EA12
:104BC80001230383704700BF838A29B923F020019A
:104BD8000B041A0C8282704799B241F02003838239
:104BE800704700BF838A29B923F010010B041A0CFF
:104BF8008282704799B241F010038382704700BFE8
:104C0800828A22F004031A04130C8382B0F814C0B9
:104C18001FFA8CF241EA020383827047838A29B91A
:104C280023F002010B041A0C8282704799B241F0FA
:104C380002038382704700BF838A9BB21AB923EAB2
:104C480001028282704719438182704701F01F0375
:104C580010B4C1F34211012414FA03F3A1420ED097
:104C680002290ED014302AB9016821EA030303602F
:104C780010BC7047026842EA03010160F8E70C3093
:104C8800F1E71030EFE700BF038819420CBF00209E
:104C980001207047C9430180704700BF10B401F07C
:104CA8001F020124C1F342139440012B18D0022B98
:104CB8000CBF028A828A1FFA82FC04EA0C0200886E
:104CC8000124090A83B214FA01F119420CBF002029
:104CD8000120002A0CBF002000F0010010BC704722
:104CE80083899AB22240EAE7090A012313FA01F2FA
:104CF800D1430180704700BFD0F8AC240121117264
:104D0800D0F8AC3400229A72704700BFD0F8AC24B7
:104D180001215172D0F8AC340022DA72704700BF1A
:104D28002DE9F843DDF820801446054699460F46DC
:104D3800FBF78CFD0020FBF719FE0026012340201D
:104D4800E370237784F821302179A071267066708A
:104D5800A67084F82060284600F0D6FB61792846C2
:104D680000F0D2FB40F27802C2F20002C4F87C9054
:104D7800C4F880803946C5F8AC24167256722846A5
:104D880001F010FFD4F88000036898472846BDE872
:104D9800F843FBF7BDBD00BF70B50C4600250123E5
:104DA80040220646E3702377A27184F821300979FE
:104DB80025706570A57084F8205000F0A5FB30467A
:104DC800617900F0A1FB284670BD00BF00B50A1F3D
:104DD800D3B2012B83B00AD9062901D003B000BD94
:104DE800D0F880100C23037008688047F6E7D0F8E5
:104DF8008020936C0190984701980C210170EDE791
:104E080070B50D7F00226B1E0C468A7405460A2B6E
:104E180012D8DFE803F0212A38415D717E9B8706AE
:104E28001400617901F004FF012800F0AC80022829
:104E380000F0CE80032846D00023184670BDA37B1F
:104E4800581CC2B2022AA27340F2A18060780822DC
:104E5800A27420700223F0E704F11401627900F0D3
:104E680095FB022020770023E7E7617901F0E0FE57
:104E7800012800F090800328DED10B20052120773F
:104E8800A1740023D9E72379A168227B00F0C8FB2D
:104E9800042323770023D0E7217901F0C9FE0128F4
:104EA80000F08F8004286ED003280CD0284601F02B
:104EB800BBFE45F25023C2F20003228AB3F800C0B9
:104EC800811A6145B8D90B2100232177184670BD96
:104ED800637916335A0100EB020E9EF805C08CF078
:104EE80001018EF805106379A168227B00F066FB4A
:104EF800062020770023A0E7617901F099FE0128B8
:104F080062D004283FD0022894D1052121770023BC
:104F180093E700210A46237900F082FB08222277D2
:104F280000238AE762791632510100EB010C002157
:104F38009CF8053083F0010E8CF805E063790A4689
:104F480000F03CFB0A202077002376E7217901F066
:104F58006FFE0128064616D00328B4D0284601F073
:104F680063FE45F25023C2F20003218AB3F800C061
:104F7800401A6045A7D8042E7FF45EAF6278A67405
:104F88002270032359E760780023207055E7012138
:104F98002177002351E7237D618B03F08002D9B18B
:104FA80045F2502CC2F2000C41F28830ACF80000F7
:104FB800EAB905212177284601F036FE0023208230
:104FC8003BE70922227771E707202077002334E79F
:104FD80009232377002330E745F2502EC2F2000E52
:104FE8003220AEF800002AB907222277E3E703222D
:104FF8002277E0E709232377DDE700BFF0B50B78D8
:1050080095B002220C468DF84F2005460C2B20D86F
:10501800DFE813F07F0089008F001F001F001F00CA
:10502800D200F000FB0011014F001F005F0091F853
:105038003220002A00F0B581FF2603AB009600F06D
:105048008BFC30B9D4F8802003A8116B884708235B
:10505800A370284601F0E4FD18B9D5F8AC64F67AD7
:105068000EB115B0F0BDD4F8803018698047D5F876
:10507800AC140123CB724022A271E370237784F829
:105088002130217926706670A67084F82060284641
:1050980000F03AFA6179284600F036FAD4F8800030
:1050A80043689847E16F28464A6804F12001904711
:1050B800D7E7D1F88030986B80470128C9D1E16FD4
:1050C80028460A68214690470028C2D10720207048
:1050D800BFE700230122402023706370A37084F887
:1050E8002030E270227784F82120A07109792846BF
:1050F80000F00AFA6179284600F006FAD4F8802010
:1051080050688047E16F28464B6804F120019847B2
:105118009FE701F085FD00289BD0284600F000FAA3
:105128000220207095E701F075FD002891D12070CC
:105138008FE7D1F8800081688847D5F8AC24002132
:105148005172D5F8AC3401269E72284600F09EF9BB
:1051580080216071284600F099F92071284601F0F5
:1051680059FD064600287FF474AFD4F88070F868BB
:105178008047284601F048FDD4F88010C0B284F872
:105188002100062222708B699847A779217994F823
:10519800202094F8213001972846009600F022F943
:1051A800A779617994F8202094F821300096284650
:1051B800019700F017F94CE791F802C0BCF1090F0C
:1051C8003FF647AF01A252F82CF000BF1153000878
:1051D800F35200085753000891520008CD520008B6
:1051E800A3520008675200083750000853520008BD
:1051F80045520008CB6F9A6890478DF84F009DF88C
:105208004F303BB90821217023E7CB6FDA6890470C
:105218008DF84F009DF84F30191FC8B2012840F291
:10522800B980062B7FF415AFD4F880300C22227099
:10523800196888470DE7FFF7E3FD0AE7D1F8800012
:10524800416B88470A22227003E791F8392000F061
:105258001DFC00287FF4FDAE0922A270F9E691F842
:105268003120002A00F0B380FF2603AB009600F03F
:1052780073FB00287FF4EDAED4F8803003A8DA6A17
:1052880090470721A170E4E6092200F0C7FA002838
:105298007FF4DFAE0420A070DBE691F83020002A0E
:1052A80000F08A80FF2603AB009600F055FB00282B
:1052B8007FF4CFAED4F8801003A88B6A98470622F3
:1052C800A270C6E6CA8E00F0A9FA00287FF4C1AE23
:1052D800D4F8801004F134004B6A04F1500204F150
:1052E8003E0198470523A370B3E6122200F034FA72
:1052F80000287FF4AEAED4F8802004F12200D169F2
:1053080088470223A370A4E6082200F025FA06467F
:1053180000287FF49EAE94F829E0284684F806E039
:1053280001F078FCA779617900960120A0703246D7
:1053380033462846019700F07FF8A779217900962F
:10534800324628463346019700F076F881E6012276
:1053580000F08EFB064600287FF47BAED4F8801060
:10536800012284F820200B6A98470320217994F8B9
:10537800202000963346A0702846019600F05CF87D
:10538800617994F82020009628463346019600F06B
:1053980053F85EE6D4F88000836C98470C2222709C
:1053A80057E6D1F8801048F22840C0F600000B6B91
:1053B80098470820A0704CE6D1F8803048F2284081
:1053C800C0F600009A6A90470620A07041E6D1F81E
:1053D800802048F22840C0F60000D16A884707209C
:1053E800A07036E6F8B500EB41064C01041901F14E
:1053F8001605B6F88C749DF818C084F8AC226D01B7
:105408004519BDF81C2084F8B1C2002607F07F0EAC
:10541800C7F3C01784F8ADE284F8AE72A4F8B222DC
:1054280084F8AF322E716E7113B9012384F8B0324B
:1054380001F0C6F90020F8BD70B54C01BDF8145054
:1054480012B1061986F8AC220219B2F8B2C2BCEB46
:10545800050618BF0126002D0CBF002606F0010620
:105468000EB1A2F8B252041994F8AFE2BEEB0302EF
:1054780018BF0122002B0CBF002202F001020AB162
:1054880084F8AF3201F09CF9002070BDB0F98C347B
:10549800002B1FDAB0F98E24002A26DAB0F990C45E
:1054A800BCF1000F23DAB0F99234002B21DAB0F9FD
:1054B8009424002A1FDAB0F996C4BCF1000F1CDA54
:1054C800B0F99834002B1ADAB0F99A24002A18DABD
:1054D800FF207047002300EB43006FEA41426FEA68
:1054E8005241A0F88C14D8B270470123F3E7022385
:1054F800F1E70323EFE70423EDE70523EBE70623B2
:10550800E9E70723E7E700BF072907D801F5117383
:1055180000EB4300828851044B0C838000207047C5
:105528000023C0F89034C0F89434C0F89834184672
:10553800704700BF70B50C4649791E46154601F004
:1055480077FBE378012B03D0022B0CD0012070BD30
:105558002178A5600920022220706170A681237736
:10556800E270184670BD012809D0032803D004282A
:1055780008D0012070BD0122E270184670BDE070AD
:10558800002070BD0123E370032070BD38B502F11F
:105598000D04640104195301C318C4F8181100213B
:1055A80083F8AE12032184F814110821C3F8BC1241
:1055B800114601F04DFBC0B238BD00BFF8B503F18C
:1055C8000D045D01660145198619002785F8AE723C
:1055D800C6F81811C5F8BC227AB903F116025101B0
:1055E80042180121517164010419022284F814211E
:1055F800194601F02DFB0020F8BD03F116025101F8
:1056080000EB010C9CF80520002AECD16401041978
:10561800194684F8142101F01BFB0020F8BD00BFD7
:1056280070B503F10D056D0145195C010419C5F844
:105638001811012184F8AE12022185F81411C4F85A
:10564800BC22194601F004FB002070BDF8B503F137
:1056580016067501471903F10D047F795E0165018E
:1056680086194519002F4FF0000418BF0227C5F806
:10567800181186F8AE42C6F8BC2285F8147119468E
:1056880001F0E6FA2046F8BDF8B503F116056E01FB
:10569800841903F10D0726797F015D01C419002ED5
:1056A800054418BF0226C4F81811012185F8AE1266
:1056B800C5F8BC2284F81461194601F0C9FA002023
:1056C800F8BD00BFF8B503F116046601861903F1A9
:1056D8000D0534794FEA45155F014519002C07443B
:1056E8000CBFA6464FF0020EC5F8181184F001044D
:1056F800012187F8AE12C7F8BC2285F814E134718D
:10570800194601F0A5FA0020F8BD00BFF8B503F16D
:1057180016056E01861903F10D0735794FEA431412
:105728007F0100EB040EC719002D0CBFAC464FF0EB
:10573800020C4FF0000485F00105C7F818118EF827
:10574800AE42CEF8BC2287F814C13571194601F073
:105758007FFA2046F8BD00BF802370B50B7506237D
:1057680016464B754FF4807C00230B834A83A1F8BF
:1057780016C000F5887233460C460546FFF7DAFE78
:1057880000B170BD95F8102184F8222095F8111108
:1057980084F8231095F8133195F8122119028B1803
:1057A800A38495F814C184F826C095F815E184F807
:1057B80027E095F8162184F8282095F81711082E67
:1057C80084F82910DDD995F8192195F818111302D4
:1057D80003EB010CA4F82AC095F81B2195F81A11BF
:1057E800130203EB010EA4F82CE095F81D2195F89F
:1057F8001C1113025A18E28595F81E1184F830100E
:1058080095F81F3184F8313095F820C184F832C0FA
:1058180095F821E184F833E070BD00BF80232DE9BD
:10582800F0410B750623174600F588744B754FF445
:10583800007C00230B834A83A1F816C022463B460E
:105848000D460646FFF776FE08B1BDE8F08196F8EA
:1058580010C185F834C096F811E185F835E096F85E
:10586800132196F8121113025A18EA8696F8142191
:1058780085F8382096F815C185F839C096F816E1EC
:1058880085F83AE096F8171185F83B1096F8183124
:10589800092F05F1500C85F83C30D6D9022A9CBF57
:1058A80005F146030746D0D89742CEDA2178641826
:1058B8006278042AFAD1217803F8081C627803F880
:1058C800072C94F802E003F806ECE67803F8056C78
:1058D800267903F8046C617903F8031CA27903F8AC
:1058E800022CE17903F8011C227A022E98BF4FF0AE
:1058F80000081A7098BF424628D8B24226DA2178A2
:10590800641894F801E0BEF1050FF6D126780CF87A
:1059180032600CEBC2026178517094F802E082F8B0
:1059280002E0E678D67061792679090289199180B2
:1059380094F806E008F1010682F806E05FFA86F8B6
:1059480013F8046C4FFA88F2B242D8DB95F8382085
:1059580001370933A8E700BFF8B51E468023BDF814
:1059680018500B75062342F440724B7540F20943F8
:10597800CA820B834D8300F588722B460446FFF7D5
:10598800D9FD18B994F81111032900D0F8BD94F87D
:1059980010319A1E9542A8BF1546ADB2002D49D0C8
:1059A800334694F81211022203F8011B6E1E954229
:1059B800C6F341011E463DD909B2D1B101290ED025
:1059C80002291EBF94F8142103F8012B042204EBCA
:1059D800020E02329EF8126103F8016B92B2A1180E
:1059E800023291F812C192B203F801CB95421E46D9
:1059F80020D9A1189E4691F81261971CBAB20EF8E8
:105A0800016B04EB020C911C9CF812718AB2A61867
:105A18005F70911C96F812718AB204EB020C8EF832
:105A280001709CF81261023292B2DE700433954222
:105A38001E46DED800233370F8BD00BF70B462F094
:105A48007F0CBDF81050CB82062240F2094603F4C1
:105A58007F43B3F5407F0CBF334600234A75039A52
:105A68000B832B4681F814C04D8370BCFFF762BDD1
:105A780030B40024CA820525224623460C754D758C
:105A88000C834C8330BCFFF755BD00BF30B40024F5
:105A9800CA820925224623460C754D750C834C8312
:105AA80030BCFFF747BD00BF163330B45B01C318E5
:105AB800022500240A830D75012512064D75CC8236
:105AC8004C834CBF1C715C710022134630BCFFF73D
